:043000006F60102EBF
:103004000030000000000000EE930000F293000086
:1030140000000000F4930000000000000000000025
:10302400F4930000F493000000000000000000008E
:10303400D08F000000000000F493000000000000A6
:10304400F4930000F4930000F493000000000000E7
:103054003C900000F4930000F4930000F49300000B
:10306400B6820000F4930000F4930000F49300008F
:10307400F4930000F4930000F4930000F493000030
:1030840094870000F4930000F4930000E88A0000A1
:10309400F4930000FC8A0000108B0000F4930000FD
:1030A400A49000000A910000F4930000F49300003F
:1030B400F4930000D2A50000F4930000F493000000
:1030C400F4930000F4930000F4930000248B0000B8
:1030D400F4930000F4930000388B0000000000001B
:1030E40000000000000000000000000000000000DC
:0C30F400000000000000000000000000D0
:103100003D432A876373C3029377F700BDEFADE5B4
:10311000937606FF3D8ABA960CC34CC30CC74CC7C6
:103120004107E36BD7FE11E28280B306C3408A06F3
:103130009702000096966780A6002307B700A306B3
:10314000B7002306B700A305B7002305B700A30403
:10315000B7002304B700A303B7002303B700A302FB
:10316000B7002302B700A301B7002301B700A300F3
:10317000B7002300B700828093F5F50F9396850082
:10318000D58D93960501D58D61B79396270097024B
:10319000000096968682E78086FA9680C1171D8F7A
:1031A0003E96E374C3F8A5B7397101436EC619A002
:1031B000397141536AC866CA62CC5ECE19A03971B2
:1031C00001535AD056D252D44ED64AD826DA22DCEF
:1031D00006DE33016140828241114AC026C222C408
:1031E00006C68282B24D4101024D924C224CB24B36
:1031F0004101024B924A224AB2494101024992449A
:103200002244B2404101828083A7412D2A8705488C
:1032100091C33E8883A601306381B606958D13DF86
:1032200015009306803EB387D70283AE812D03A598
:10323000C12F03AEC12C03A3812FFA97B3D7B702D6
:1032400013962E009316250083A8812C7696AA96B5
:10325000860606063A851CC3B3570303B3550E030F
:103260001CC7335606034CC3B3D7060350C733D825
:1032700008031CCB232A07018280014F854555B7DF
:10328000EFF29FF5AA8403C5E12E2E8497D0FF1F8D
:10329000E780007083C6512F2686930520031145D1
:1032A000EF50A04383C6D12E22869305E00311453B
:1032B000EF50A04283C6C12E37D600001306062E5B
:1032C000930500051145EF504041EF40F07B3DB7BD
:1032D000EFF29FF0A944B3559502374400202A89A4
:1032E00029461305C411EF50F0229305E00213059F
:1032F000C411EF50500EB375990229461305C4113D
:10330000EF505021E5BDEFF23FEDEF70900323A0A9
:10331000A13023AC012E23A6012C23AA012C23A427
:10332000012C23AE012E23AC012CC9BD9307803E96
:103330004111B3D7F5020146A948254E11A09A873D
:1033400033F7170314083383C6009306160013F8E7
:10335000F60F428613070703230AE3FE33D317034E
:10336000E36FFEFC630908043306D500AA8619A0A2
:10337000038747FF850693C7F6FFAA97C29793F77F
:10338000F70FA38FE6FE1808BA97E393C6FE9307DC
:10339000803EB3F5F5029307E0021CA293074006B6
:1033A0002301060013052600B3D5F5029385050316
:1033B0000CB2410182802A86D9BFEFF27FDF79719A
:1033C0002A8BAE893289B68A3A8AEF40D06D03C71C
:1033D000E12EC9461306000881450145370C00203F
:1033E000EF50600B130C0C2083470C002008A286C2
:1033F00013972700B56793878730BA979843830759
:10340000070081CB85060507A38FF6FE830707001B
:10341000F5FB9384412F9C2023800600638E0728B0
:10342000938BD12E83C60B00854522860545EF5030
:10343000C02A9307E006FC8483C6C12DA9458147B5
:10344000A54819A0C287B28633F7B60210183E9677
:10345000138517001378F50F13070703230EE6FCF7
:1034600033D6B602E3E0D8FE6301082E930691013D
:103470001306F00F19A00307C7FD8506FD17A38FDC
:10348000E6FE93F7F70F18183E97E396C7FE9307EB
:1034900091013387A70083460C00230007000546EF
:1034A0009387F6FF93F7F70F637DF6208D476390C0
:1034B000F618018F13152700098F83C60B0013150B
:1034C0001700854522861305F507EF500021814737
:1034D000A945254819A0AA87328B3377BB0210185B
:1034E0003E969386170013F5F60F13070703230E76
:1034F000E6FC3356BB02E36068FF630B05242286BB
:103500009305F00F19A00307C7FD0506FD17A30FCC
:10351000E6FE93F7F70F18183E97E396B7FEB3074A
:10352000D40037D700002380070093060007130656
:1035300060061307872F21A03686830617008507AC
:10354000A38FC7FE0507EDFA3E8523800700CE85D1
:10355000F13BB7D700001307C0069306000293871C
:10356000073021A0BA86038717000505A30FD5FEF3
:1035700085076DFB23000500CA854D3B83A7012D00
:10358000D1C337D700009306500413060002130777
:10359000473021A03686830617000505A30FC5FE18
:1035A0000507EDFA2300050001462948254311A02F
:1035B000C68733F707031418B388C60093061600AE
:1035C00093F5F60F2E8613070703238EE8FCB3D876
:1035D0000703E36FF3FC638305183306D500AA865F
:1035E00019A00387C7FD850693C7F6FFAA97AE9774
:1035F00093F7F70FA38FE6FE1818BA97E393C6FE6A
:10360000230006009C208DE383C6C12E2286A94597
:103610000545EF50800CC946130600088145014559
:10362000EF4050444561C9B683C6512FC5B73A86AD
:10363000B7D7000013072005930600029387472F92
:1036400019A0038717000506A30FD6FE8507BA86C3
:103650006DFBA947150A335AFA0223000600814779
:10366000A945A54811A0428AB376BA0218183308B2
:10367000F700138717001375F70FAA8793860603C1
:10368000230ED8FC3358BA02E3EF48FD61C53297E8
:10369000B28519A08386C7FD850593C7F5FFB2974C
:1036A000AA9793F7F70FA38FD5FE1418B697E313D5
:1036B000B7FE23000700F5BB83C6512F938BD12E95
:1036C000A5B3B7D700009306C00413060002938782
:1036D000072F21A03686838617000507A30FC7FE94
:1036E0008507EDFAA947950AB3DAFA022300070025
:1036F0008147A945A54811A0C28AB3F6BA0210189D
:103700003308F600138617001375F60FAA87938601
:103710000603230ED8FC33D8BA02E3EF58FD39C1B3
:103720003A96BA8519A08386C7FD850593C7F5FF2C
:10373000BA97AA9793F7F70FA38FD5FE1418B697E9
:10374000E313B6FE23000600E5B513079101A1B30C
:10375000A287C1BB328723000700A1BB2A862300B2
:1037600006004DB53A8623000600D9B5EFF2DFA674
:10377000138F418083270F00831F050083142500CA
:103780001397D700B98F13D71701B98F93955700A7
:10379000BD8D13F63500914713838183938E418449
:1037A00093030008138EC183454993820184330734
:1037B000C30003070700FD17130816007E9793F751
:1037C000F70F634B0704834885003304CE00B386AC
:1037D0001E019422369763C1E30403070400969800
:1037E0002697635BE90283C60800369763C6E30247
:1037F0009397D500AD8F13D71701B98F1397570043
:10380000B98F1307900233F7E7022320FF0010B5AA
:10381000930787003CA5DDB213763800C9FBC9BF0A
:1038200063480510EFF2DF9893070004AA8463CA87
:10383000A70E1384C12D0348040093FAF40FC28825
:103840006354980E371A0020130A8A2D938B4180F7
:103850009389418413890184130C00087D5B83A73D
:103860000B00937518003306B9009396D700B58FF7
:1038700093D61701B58F93965700B58F3387B9004C
:1038800010229396D7001823BD8E13D51601330648
:10389000CC40A98E3307EC40420613955600418276
:1038A0004207A98E41833D1633F3C602130E17005B
:1038B0001396D600B18E1397180013D616014697AB
:1038C000B18E139656000A075297B18E0508937C65
:1038D000F80F3A850CA72322670134B723050700A8
:1038E0002300940123A0DB00B3F7C70313062301D1
:1038F00032A31EA3A53DE6886688E3C29CF623009A
:1039000054011387816B8147938617001CA393F79B
:10391000F60F0507E3EA57FF05472384E1806FF0C0
:10392000BF8C9304000431B72300540179F9EDB73B
:10393000238E012C05472384E1808280EFF2DF890A
:10394000B74723019387775623A2F180238E012C5A
:10395000C13DEF70001F23A8A12E6FF03F8AEFF248
:10396000BF870547238AE12E238201303744002098
:1039700023A2012E23A4012E1305C411B707002092
:1039800023800720EF60206619E90945453FA38E93
:10399000012CEF70001B23A0A12E6FF03F86B7B55E
:1039A0000000938545451305C411EF50E023F1BF96
:1039B000EFF28FFF85450945EF30506D3565C14504
:1039C00013050526EF40A02541641305F4FFEF40E1
:1039D00000291389D12E2300A900316513058561C3
:1039E000EF40E0272386A12E130504E0EF402027B7
:1039F000A38AA12E0145EF4080269384E12E37143F
:103A0000002088A01305845DEF00B0758820B744BE
:103A10000020B719002097D0FF1FE78060F783468A
:103A2000090037D600001306C63F9305C0031145B1
:103A3000EF40B04AEF4050059305C05D1385C411B7
:103A4000EF60E05A2D6CB7DB0000B7DD0000C54524
:103A50001385495E138A816F37DB000037DD000074
:103A6000B7DC0000130C4C44938B4B3F938D8D3F80
:103A7000EF10F00025C51385C411EF60C056631028
:103A80000516854613064B4BE1451385816FEF10F4
:103A9000403E2A891385C411EF60E05435E5E957AB
:103AA0006308F91C6305090E9305CD4913850C4B7A
:103AB000EFF00FFD1305845DEF00D0722945EF7024
:103AC000C009930500041305845DEF0050707DD19B
:103AD000C5451385495EEF10807A51FD37D9000046
:103AE000B7D500001305C9419385C540EFF04FF9E4
:103AF0001385C411EF60204F55DD9305C94113852F
:103B0000C411EF50600E7DB7B7D500009385854492
:103B10001385C411EF50A007631B0912B7D500002D
:103B2000938545451385C411EF50600683250A002F
:103B300029461385C411EF50E01DB7D500009385C9
:103B4000C5451385C411EF5080042946E14513850E
:103B5000C411EF502019B7D5000093850545138592
:103B6000C411EF50C00283456A0029461385C41171
:103B7000EF50401C930580071385C411EF50A0053A
:103B800083457A0029461385C411EF50601B834793
:103B90006A005D476399E70E83467A006D47639438
:103BA000E60E03476A0F6310F70E03477A0FE947E3
:103BB000631BF70C014597D0FF1FE78060DDEF40E6
:103BC000A06C4145A53B0147814601468145014521
:103BD000EFF0AFFEEFF02FF359336FF0AFE0B7D552
:103BE00000009385C5421385C411EF40507A1389B4
:103BF000495E8347C9001385C4118D8B8A07E297FC
:103C00008C43EF40107BB7D5000093854543138567
:103C1000C411EF40D07783472901E1452946B3D548
:103C2000F5001385C411EF50E013B7D5000093855C
:103C3000C5431385C411EF409075EF10F029DE8560
:103C400011E1EE851385C411EF40107A1DBDB7D583
:103C50000000938585461385C411EF4050732946B3
:103C6000CA851385C411EF50A008E957E31EF9E295
:103C7000B7D5000037D50000938505471305854863
:103C8000EFF00FE005BDB7D5000037D500009385F4
:103C9000054C1305454DEFF0AFDE29BDEFF2CFD057
:103CA0005571EF60106A371B00202A8913058B5D60
:103CB000EF005053938481309C40B307F94063C8B0
:103CC00007409305000413058B5DEF00104F9389A7
:103CD000412F83C709006313056063840762370AB5
:103CE0000020938781801384C12D130A0A203EC6C9
:103CF000EF603065938D012F83A70D00AA8C1020F3
:103D0000B307F54063CF070C938741843ECC371946
:103D100000209387C183A1441309892D3ECE55C24B
:103D2000814A138C8183130D0008938B018491A821
:103D3000F24618273388C600E2463386E600102292
:103D400046966347CD063386EB00030808000397C9
:103D50002700C546429763DDE60410223A96634980
:103D6000CD04B037A82793861A000506B0B71020F7
:103D70007D1523901701BAA3A8A793FAF60F63F253
:103D8000CA0493971A00338757010A074A973027C6
:103D900063020610D6978A07CA9790378398070060
:103DA0003A853308CC0003080800C298E3D208F82B
:103DB000EFF0DF9B102093861A0093FAF60FE3E2F0
:103DC000CAFC83A70D009387870223A0FD00B38759
:103DD000FC4063C80700FD1493F4F40FA9F023A07E
:103DE0009D01854763F0C70CB71C00208547938C65
:103DF0008C2D938D0184138D816BB305FD0083C8D9
:103E00000500138817001378F80F93961800C696CC
:103E10008A06E6969826B6226E97082336954205BE
:103E200041856382072A03C3F5FF931613009A9610
:103E30008A06E6968C26039E2600B386BD0098224D
:103E400072976351E5049385F7FF93F5F50F25A06D
:103E50000343F7FFAE87FD15931613009A968A0663
:103E6000E69603CE8600839E2600B386CD01982277
:103E700076976359E500EA97238067003307BD0012
:103E8000E1F981473307FD0023001701637CC80077
:103E9000C287A5B73A853ECA3AC8EFF03F8DD247F0
:103EA0004247CDBD8808EF005061B2479C23639A1A
:103EB00007341C20ADCBB71C0020814B938C8C2D7C
:103EC00093844184938D0184939A1B0033897A01F2
:103ED0000A096699834789000316490088083387D1
:103EE000F400EE971423B2859823634D0600031661
:103EF0006900EF00505E834789003387F400EE9736
:103F000014239823DE9A8A0A83150900E69A0396F9
:103F10002A00F9998808EF00105C1C20850B93FBA0
:103F2000FB0FE3E3FBFAEF609042AA8AEF40A03771
:103F3000EF60F0412A89096637250020130606B88C
:103F400081451305C54DEFF0AF9B83470A0063859C
:103F5000072209476369F7181385C136EF308026B9
:103F60001C20B5CBB71C0020814D938C8C2D138D5C
:103F7000816B9384816F0D4CB307BD019C23014776
:103F80001385C13693961700BE968A06E696AC3620
:103F900083C886009036898133F88503939718008B
:103FA000C697931516008A07B295BE95039606002C
:103FB00083962600850D799A93FDFD0FC29593F5A2
:103FC000F50F93972500BE958A05A695EF30A020A2
:103FD0001C20E3E3FDFA83450A0001461385C13640
:103FE000F91593B51500EF30A026631C0534938BAB
:103FF000C13603CC4B3483D46B3483DB8B34EF601A
:1040000010351C20AA8C8DCBFD1713F7F70F9316D4
:104010001700B717002036979387872D0A079386D6
:10402000C70036979623B223B107F99A239CD7FE8F
:10403000239DC7FEE318F7FE8808EF001053EF60DA
:1040400010311388812F832708009388C12C938512
:10405000812D83AF08001386C12F9386812C13878F
:10406000412D03AF0500CA97832E060003AE06005C
:1040700003230700B38A574133892F41B38A9A41FA
:10408000AA9A7A9CF694F29B0503669923A085016F
:1040900023A028012320580104C223A07601232055
:1040A0006700EF60102A83C70900AA856394071A86
:1040B00083A701301307703EB307F5406360F7161E
:1040C00069616FF02F9223001D01C2873DB3370A4B
:1040D0000020938781809389412F1384C12D130A77
:1040E0000A203EC631B11C20C1C7B71C0020B56BE9
:1040F000014C938C8C2D93844184938D0184138D7A
:10410000816B938B0B28B3078D019823814713167E
:1041100017003A960A06669628360D471426135855
:1041200025003375E8020C3613971600369713985E
:1041300015000A072E983A98831506003387DD008C
:10414000A6961823942203162600F9992A98137824
:10415000F80F0A085E980325080097D0FF1FE78034
:10416000C0971C2093081C0013FCF80FE36DFCF8AB
:10417000814B8144014C61B51C20638C0762B71CE4
:104180000020814D938C8C2D138D816B9384816FD6
:104190000D4CB307BD019C230147814613961700C0
:1041A0003E960A0666962836834886000C360981B4
:1041B0003378850393971800C697139515008A07DF
:1041C0002E953E958315060003162600850DF99958
:1041D00093FDFD0F42951375F50F931725003E953E
:1041E0000A052695EF00B0591387012D01C51C4320
:1041F00085071CC31C20E3EEFDF8BE84A68B014C92
:10420000FDBB1307E0069306000849468145880870
:10421000EF00702CB2472380070031B38808EFE02D
:10422000BFFEC64B564BE64AF64906595E85CE861A
:104230004A875686DA85EFF04F98B74400201385F9
:10424000C411EF50505A63140510EFF0CF8B696121
:104250006FE05FF91389D12D834709006382071E40
:1042600083A701301307703EB307F540E37AF7E404
:104270002818EFE07FF9B74400201385C411E25AF3
:10428000F25B064C964C264DEF50F0556310053A04
:104290006A87E6866286DE855685EFF00F92930781
:1042A000B00363FB571D03460A0014201387812EB9
:1042B000329714A39387412EB29794A39307E003F8
:1042C00063E2D71C890613F5F60FEFF02FE7230002
:1042D0000900EF60100723A0A12EDDB31309C91256
:1042E00023A02401638C0716374400201305C41152
:1042F00023800900EF50304F631F054AEFF0AF8075
:10430000F9BA1384C12D854513058B5D034A04005A
:10431000EF00A06A6308051413051A001C206386C9
:10432000A700EFF0EFCFEFE01FFE1309490B370AAC
:1043300000209387818023A02401130A0A203EC60F
:1043400045BA9387012D9843050798C34DB183471C
:104350000A001385C41113972700B5679387873028
:10436000BA978C43EF40F004B7D500009385053A27
:104370001385C411EF40B0010C2029461385C411E8
:10438000EF40501BB7D500009385C53A1385C41183
:10439000EF40E07F2946DE851385C411EF4090177A
:1043A000B7D500009385453B1385C411EF40207EAF
:1043B0002946DA851385C411EF40D015B7D5000022
:1043C0009385C53B1385C411EF40607C2946D68593
:1043D0001385C411EF401014B7D500009385853CB8
:1043E0001385C411EF40A07A4E85EFE07FEEB7D57C
:1043F00000009385453D1385C411EF4040794A85FF
:10440000EFE01FEDB7D500009385053E1385C4117D
:10441000EF40E077965529461385C411EF40900F81
:10442000B7D500009385C53E1385C411EF402076B3
:1044300083A5012D29461385C411EF40701331B5B2
:1044400003A7012E9307900FB305E540E3FAB7C623
:10445000EFE07FEB85472300F9009DB1EFF02FD00F
:104460006FF0FF87894513058B5DEF0000556308EA
:1044700005281305FAFF5DB5F54763E85745CD47B5
:1044800063E35745138741301C238D46850793F717
:10449000F70F1CA363FAF63223800900EF30B060F7
:1044A00003C5E12E714497C0FF1FE780604E83C6AD
:1044B000512F37D600001306C63391451145EF4002
:1044C000C0219387C12E942337D600001306C6342B
:1044D000C14511453ECEEF404020356F13078F3068
:1044E0003ACA1387412E3ACC1387812E3AC8B7D7E0
:1044F00000001387D12E1309A105938A812E938B77
:10450000412E130C8F309306300593878731930922
:10451000F1053AC6930C0002294DA54D638A062A7F
:10452000900805068507A30FD6FE83860700F5FAD7
:1045300023000600637726010506A30F96FFE36DAF
:1045400026FF83C70A00814511A09687B3FFA70302
:104550009809B302B7009386150013F5F60FAA85E4
:10456000938F0F03238EF2F5B3D2A703E3EFFDFC85
:1045700063060526B296B28519A0838FC7F5850517
:1045800093C7F5FFB297AA9793F7F70F9809A38FF0
:10459000F5FFBA97E393D5FE2380060063F7360153
:1045A0008506A38F96FFE39D36FF83C70B00014668
:1045B00011A0968733F5A7039809B302C700930F9C
:1045C000160093F5FF0F2E8613050503238EA2F424
:1045D000B3D2A703E3EFFDFC63800520B69F3686C8
:1045E00019A00385C7F505069347F6FFB697AE9762
:1045F00093F7F70F9809A30FA6FEBA97E313F6FFF8
:10460000B247A28590089423114523800F00EF4004
:10461000C00C290493074004110C850B850A63091B
:10462000F40E83270C0083860700CDBD83470A0064
:104630001385C41113972700B56793878730BA97FE
:104640008C43EF4000579305C0021385C411EF401F
:1046500080580C2029461385C411EF40A06D9305A6
:10466000C0021385C411EF4000572946D685138533
:10467000C411EF40206A9305C0021385C411EF40B6
:1046800080552946DE851385C411EF40A068930547
:10469000C0021385C411EF4000542946E2851385FA
:1046A000C411EF4020679305C0021385C411EF4089
:1046B00080526685EFE0DFC19305C0021385C41107
:1046C000EF4060516A85EFE0BFC09305C0021385DB
:1046D000C411EF404050B64529461385C411EF4040
:1046E00060639305C0021385C411EF40C04E83A5DB
:1046F000012D29461385C411EF40806751BE9145B5
:1047000013058B5D5D2C6304051613058A0039B112
:10471000B737340093878762BEC8B7D700009306C7
:10472000D00313073105130600029387073221A037
:104730003686838617000507A30FC7FE8507EDFAA7
:1047400072442300070090081420930500051145CA
:10475000EF30B078142037D6000011451306063626
:104760009305E006EF307077EF3010321385C411F7
:10477000EF50700735E513058B5DAD242945EF60DB
:10478000C03D13058B5D8D2A7DD513058B5D992C5E
:104790002945EF60803C13058B5DB92A7DF585477F
:1047A00041452300FA00EFF06F99EFE0DFB56FF0BD
:1047B0003F918144A1B4B7D500009385C53213055C
:1047C000C411EF4060421DBE09452300FA00F5BC4C
:1047D0002308010490088DB3B68F1DB5B2866DBB5A
:1047E000B7D50000938585371385C411EF40C03FCE
:1047F000C247B7D9000037D40000938A4700B7D723
:104800000000938C8731938509451385C411EF40CF
:104810000038E6851385C411EF40A0399305C439EB
:104820001385C411EF40A036424929461385C411AF
:10483000834509000509EF40E04F9305C43913850E
:10484000C411EF40C034E24B29461385C41183C51F
:104850000B004AC8EF40C04ED24713871B003ACC2A
:1048600091073ECAE3892AF183AC070069BFA145DD
:1048700013058B5D992201C513058AFF45B4930585
:10488000000813058B5D152A370A002001E993877C
:104890008180130A0A203EC66FF08FC5130A0A20D2
:1048A00083470A001387818085078D8B2300FA00D8
:1048B0001309C91285473AC61CA3EFE0DFA423A061
:1048C00024016FF0EFC21420D5BA03460A00142069
:1048D000D5B2EFE27F90371500201305855D1920D2
:1048E0006FE0DF91F9471CA1930710023EA123223C
:1048F0000500232405008280EFE21F8E1305900C33
:10490000EF60001C133415003145EF60601B19E1A6
:10491000136424002945EF60A01A19E1136404010F
:104920005945EF60E01919E1136404022D45EF6069
:10493000201919E1136444005545EF60601819E12E
:10494000136484003545EF60A01719E1136404086F
:104950003945EF60E01619E11364040422856FE025
:10496000FF89EFE27F872A8489451305900CEF6069
:10497000800589453145EF60000589452D45EF608B
:10498000800489455545EF60000489452945EF605D
:10499000800389455945EF60000389453945EF603B
:1049A000800289453545EF6000022285B1372386B4
:1049B000A130A386A1306FE07F84EFE2FF812E84D7
:1049C000253F618D018D133515006FE03F8383C74F
:1049D000D1300145ED8F91E703C5C130E98D333505
:1049E000B0008280EFE24FFF1384C1301820A3860D
:1049F000E130193708A06FE07F800CC150C114C5A9
:104A000058C503C865009308F0075CD10508135822
:104A100018402311050223180501814763C6C80405
:104A200063C4D80483C86500B298635F100383C869
:104A300075003383D80063596002094E63C80602CB
:104A4000930E000863D46E00B388DE4033880803F9
:104A50003EA9232CC50181470908232E0501634F78
:104A600007002300F50285473E858280B307D040CA
:104A7000338E0703C207C183090ED9B71377160017
:104A80006DF3F82193761700E9FEE34C06FCB307BB
:104A9000C70093A71708F1B7EFE20FF42A84EF30AD
:104AA000001785476303F504795689458317440049
:104AB0008316040003176400AE9783152400FD17C6
:104AC000F18EF18F958F0D8FB387E702854613879F
:104AD000070606076318D500139717003E9705834E
:104AE0001307070C3A856FE06FF16156A1457DBF52
:104AF000EFE28FEE262914451307F0079387140081
:104B00003EA9B6944111636B9706834705022A8438
:104B10005441A5CB858613956400B7270020122841
:104B200036959387C7051307E10074003E9597B04B
:104B3000FF1FE780207239C13887504034865C50AF
:104B4000060786063297B29609078DCB13F684FFC7
:104B5000B2970396070063D3C60096A383962700F7
:104B600063D3D400A6A38396470063D3E600DAA3F9
:104B70000397670063C4E4008504E6A341016FE086
:104B8000EFE710415C452E880349660005472686FD
:104B9000B6854285CA8697C0FF1FE78000F45C4057
:104BA0001306000813C7F7FF7D87B38627017D8FA3
:104BB0006347D6025C50F9D313F684FFB29703968D
:104BC00007006353C7009AA30397270063D3E40049
:104BD000A6A303974700E35DD7F8D6A351BF93067A
:104BE0000008C9BFEFE2AFDD5C49184DAA842E8AE8
:104BF000328963FBE7001D8FB2866361C70AB697EF
:104C0000369A3309D940DCC8D84CB306F90063F9A9
:104C1000E7086361D708D4C863070904416B938A26
:104C200084027D1BBE309A28D2853385FA00330476
:104C3000F74042044180B1E36375E90413140901AC
:104C4000B379690141804E86EF600006BA309E2834
:104C5000330939413A9442044180A2B04E9A6386A6
:104C60008700E31109FC6FE0CFD8D685268549354A
:104C700023910402E31809FAFDB7A289E37589FCC0
:104C800075BF2685B5359E283309F9403E9AE31B4A
:104C900009F8D1BF3309F740BA86B5BFBA8685B7E0
:104CA000D4C86FE00FD5EFE22FD3AE8713060020F4
:104CB000AA853E85053F6FE06FD4E177930605082E
:104CC00093C7F7FF7D573EA11EA17AA15AA12105E6
:104CD000E31BD5FE828093C7F5FFFD87AE961308D0
:104CE0000008FD8D6354D8009306000863D9D506EB
:104CF0009347F6FFFD873297130800087D8E6341C6
:104D0000E806635EE604937786FF63DAE7043E9580
:104D100025A8A107BE880313050063D365000EA173
:104D2000031325006354680023110501031845008F
:104D30006353D80056A10318650063541801231368
:104D40001501210563DDE7003E8863D3C700328883
:104D500093887700E3CFE8FABA88A1076DBF828015
:104D600013070008E341E6FADDBFEFE24FC541114A
:104D70002A8493040508014A814989A83080931543
:104D80000601C1856353B7003A863882708430814A
:104D900070851316070141866353F6003E8728008D
:104DA00078867487EFF05FCFAA8A0A85EFF0DFCEAE
:104DB0002A892285EFF05FCE4A9563695505A2479F
:104DC0003EC0B2473EC22104638C84028317440074
:104DD00003170400E359F7FE83166400031624004A
:104DE000E353D6FEE39C09F8122036205A207E2099
:104DF0007080748178827C8321048549E39884FCE7
:104E000063930904528541016FE0AFBE831721000F
:104E10000315010003194100831A6100BE8533099F
:104E2000A940B38AFA404A8633095903D686EF303F
:104E30006043122036205A207E2070807481788250
:104E40007C834A9A49B78317210003150100031494
:104E5000410083146100BE85098C9D8C2286330439
:104E60009402A686EF302041229A528541016FE0DC
:104E70004FB8EFE2EFB3797195C91388F5FF137856
:104E8000F80F1317280042971318270013078501FE
:104E9000930745004297A3810700238107002390D1
:104EA000070023820700D107E397E7FEF9C22E84AB
:104EB000B7150020B68AAA84854668009385455EAA
:104EC000E1296800192645C530004C0068003126EC
:104ED0005DC1A60A49C89305F4FF93F5F50F139B2E
:104EE00025002E9B0A0B938744013E9B0149A9A8EC
:104EF000680041248947631FF504034A0100834B7E
:104F00001100680013041A00058033047403930928
:104F1000240063080A0463860B0463E43A05412411
:104F200013041420CA99935799002580636F3503A1
:104F30001247C2A023834401BA979CC0A383740183
:104F4000D104569963816403CA8568002D2C0946F3
:104F50008A8559FD79546800892C228545616FE066
:104F6000AFA87554CDBF0144FDB76D54EDB77D5466
:104F7000EDB77554DDB768000D2C6954F9BF7C217D
:104F8000D9CFEFE2CFA37171BA872A843687B28670
:104F90002E86AA852800EFF05FA609E501454D6140
:104FA0006FE02FA5EF30203003594400025792578D
:104FB0002609935997006373F900CA879387F71FEF
:104FC000A58363F0F904B3873741137707E093941F
:104FD0000701C1803ACE95C4EF20D0430C40AA8689
:104FE000B75700001307052037150020130881006C
:104FF000938767CA2686CE951305455EEF00F07F3E
:1050000009CD102441DE9257E37AF9F89305940014
:1050100028004ACEEFF01FBD51B7655549B761551D
:105020008280EFE26F9B1C414111CC87DC439305EA
:10503000F1000546829741016FE04F9C085101C97C
:10504000EFE28F991C419C4782976FE02F9B0145AF
:1050500082801C5199CBC84F984BA167198D6373FF
:10506000F50082801385F7FF828001458280EFE2A0
:10507000AF961C512A8489CF23A20700085142060B
:105080004182EF10F0111C50DC4399E36FE00F9761
:1050900085475CC001456FE06F96085115C1EFE28E
:1050A000AF93411105469305F100EF10C02E8547DF
:1050B0006316F500888741016FE04F947D55E5BF89
:1050C0007D558280EFE24F911C51411101448DC307
:1050D0002A8405463E859305F100EF10C02B8547D5
:1050E000631CF500085080870C49FD15EF10A04D9A
:1050F000228541016FE08F907D54DDBF085101C9C9
:10510000EFE28F8D8545EF10805B6FE02F8F8280FF
:10511000EFE28F8C9307803E1CC5B567938747529B
:105120002A84232205001CC1130580022E89B28423
:10513000EF50103408D011CD13068002CA85EF500D
:10514000B0363146A68513050401EF501068230ED2
:1051500004006FE0AF8A9307803E1CC5B567938754
:105160004752232205001CC1232005022308050005
:105170008280085119C5EFE22F86EF10C0216FE041
:10518000EF8701458280085109C9EFE2EF84EF10F3
:1051900080433335A0006FE06F86014582801C514B
:1051A00099C3C84F8280014582801C5191CFEFE2A4
:1051B000AF822A843E85EF10E0040850EF50F02BB8
:1051C000232004026FE08F8382801C5189C78837B7
:1051D0003335A000828001458280085109C9EFD291
:1051E000BFFFEF1080043335A0006FE02F81014531
:1051F0008280EFD2FFFB83475504AA842E84328A33
:10520000BDE789479379F40F6373F400894963ED2F
:105210008904FD5A13894401938BC40319A8CA85D4
:105220005E85EF10C01029E905041374F40F63EDD7
:105230008902A28552862685852D1DC50545EF105C
:10524000301F0546A6854A8523A65181EF10905A46
:1052500079F50146A6854A85EF10D05969F1050414
:105260001374F40FE3F789FC01456FD0FFF71305C2
:10527000C503EF00307971B705456FD0FFF6EFD267
:10528000BFF52E868145B5376FD05FF7EFD25FF25D
:105290001D71356B130B4B552A8AD1050808328CCA
:1052A000B68B02CA5AC8A30C010002DE5ADCA30066
:1052B0000104328493098103EF106007130901018F
:1052C000B14A9305F0022285EF50904D2A87B3072B
:1052D0008740A2850A859306F00293F7F70F29C746
:1052E0000307040093F4F70F630ED70263F3FA0089
:1052F000B1442686EF50704D9C10A6974E852380B2
:1053000007FAEF003070CA8585460A864E85EF1091
:10531000E0672DC94A85EF00F06ECA8726944E8952
:10532000BE8945B7050471BF032509010323490060
:10533000835889000328C900832549010346890150
:105340008326C901032709028327490233048441C4
:1053500023A08B002328AA0023206A0123226A00AD
:1053600023141A0123260A01232ABA00230CCA0097
:10537000232EDA002320EA022322FA025285256135
:105380006FD09FE623220A0023206A01A3040A00AB
:10539000528525616FD05FE5EFD27FE21971AA8453
:1053A000B68928005400328402C2EFF03FEE9247E3
:1053B0003E9483070400C9C335698347110113096B
:1053C000495502DA4AD8A30C010281EB2685EFF099
:1053D0009FD8268509616FD0DFE1CE8622862C001A
:1053E0000818EF10A05A7DD12800EF00B06193F9A2
:1053F000690099476387F908D257AC082685BECE65
:10540000835781032286CACC2310F106F257BED2FD
:105410008647BED49647BED6834781042308F1064B
:10542000B647BEDAC647BEDCD647BEDEEFF05FCE7B
:10543000268509616FD0FFDBB56793874755BECCE2
:10544000B24737D60000AC08BECEBC802685130616
:1054500086542310F106D247BED2E247BED4F247AB
:10546000BED6834701022308F1069257BEDAA2573F
:10547000BEDCB257BEDEEFF0BFC9268509616FD032
:105480005FD7B6450818EF100014BDB7B717002056
:105490009387475E0547B8AB0947D8CB35671307F5
:1054A0004755A3820700238307002385070023961F
:1054B00007002387070023980700238A070223A0F9
:1054C0000704D8DFA38207048280B707024023AE17
:1054D0000700056723A807024117D8C337370140E3
:1054E0009386C701310798C615CDC8C6CCC28D6654
:1054F00093860608B7070240D4CF98DF13879180C0
:10550000D8DF0967CCDB410798DBD84F136717005A
:10551000D8CF985B1367170098DBB73701400D476A
:10552000DAA382809387C131DCC6CCC28D66D9B73D
:105530009386E1309C22B1EF373701405E23898B9F
:10554000F5FF373701401E27898BF5DF37370140DC
:105550001E2793F70708EDFF1E23C207C18313F62A
:10556000F7FB2398F13093170601C1831EA3231282
:10557000070083C7A1808E0793F7870393E747301F
:105580001EA31E2393E707041EA35E271E2785473D
:105590009CA28280373701401E2793F70708EDFF52
:1055A0001E23C207C18393F7F7FBC207C1831EA363
:1055B0002312070083D6013193F7F6FBC207C1839C
:1055C0001EA316A3238701308280210526053707F5
:1055D000024031A01C4393F7070885E71DC11C4317
:1055E0007D1593F70702FDD7B737014023920700D7
:1055F000232E0700856723280702C1175CC30545D2
:105600008280B737014023920700B707024023AEDC
:105610000700056723A807024117D8C30547A38ED3
:10562000E130373701401E2793F70708EDFF5E276B
:1056300001451E278280EFD23FBABD472E842A87BC
:1056400063F5B70083C7D13191CB3A85A28597B076
:10565000FF1FE78040D605456FD05FBAEFF0FFE649
:105660002285EFF09FF66FD07FB9EFD2FFB6130718
:10567000F00FB7370140DAA7373701401E27858B77
:10568000F5DF5E27EFF01FF16FD05FB7EFD2DFB429
:10569000EFF01FEA83A7813103A74131D8CB6FD048
:1056A000FFB5EFD27FB31E25930520202A849D8D60
:1056B000C2050145C181EFF01FF883A7813181C781
:1056C00003A7413198CB83C7E13099C3EFF0FFF9CD
:1056D000230304006FD09FB203C5D13113351500E9
:1056E0008280EFD2DFAD2E8AEF50A04537340140E3
:1056F000AA891309F00F9304F00F231624011E2426
:10570000858BF5DF5E2493F7F70F638B9700EF50DF
:10571000404333053541E36245FF01456FD07FAD1E
:1057200005456FD01FADEFD23FAB7C212A84AE84FC
:1057300032896397070E5C34D5C7B1476392F40C86
:1057400083A7813191C7EFF07FF4B1476392F40AE8
:1057500093E7040493F7F70F373701405EA71E273E
:10576000858BF5DF5E27E146373701406156B35739
:10577000D90093F7F70F5EA71E27858BF5DF5E270D
:10578000E116E396C6FE9307500981C821479307A7
:10579000F00F6394E40093077008373701405EA769
:1057A0001E27858BF5DF5E27B1476381F4068146AE
:1057B000373701401306F00F9305F00F52A71E274D
:1057C000858BF5DF5E27C207C18313F5F70FE2076C
:1057D00028B4E18763D407026382B602850693F694
:1057E000F60FE9BF83A78131B9FFB147E382F4F631
:1057F0009305C0122285EFF0DFEE99BF6FD01FA096
:105800002285152083A781319DFFDDB79307F00F17
:105810005EA7373701401E27858BF5DF5E2741BF26
:10582000EFF03FE809BFEFD23F9B0E29A30605002A
:105830002A8495E97C258DEF0146B1452285EFF05C
:105840009FEE83A7813181C703A7413198CB83C7DE
:10585000E13099C3EFF07FE18307B400054563C0F1
:1058600007046FD0BF990145EFF0FFDC2318040057
:105870001307F00FB7370140DAA7373701401E276B
:10588000858BF5DF5E27B73601409307F00F5EA7E3
:105890009E26858BF5DFDE262307040071BFE147D6
:1058A0005CB001456FD09F95EFD29F902305050016
:1058B00023030500A30205002316050023070500A6
:1058C0002318050050A12A84AE8AEF508027AA84AD
:1058D0004820E94763E8A70239671307879A9317B7
:1058E0002500BA979443094793D756009D8B637759
:1058F000F71A9389813123A0090001478547B3979F
:10590000D70015A09377050C1307000C6384E71AE2
:105910009389813123A009001307000C638FE71ED0
:105920000147B70700801CCB1389413185452320EF
:10593000F900EF50400903A7090083260900B717B3
:105940000240056614CB944F110637170140D18EE3
:1059500094CFD44B138AA18093E61600D4CB83272F
:105960000780B706B0B8B207B183D58F2320F78080
:10597000930700042328F7809D472300FA00EFF0E7
:105980003FBBA946373701401306F00F52A71E2729
:10599000858BF5DFFD165E2793F6F60FE5FA938B00
:1059A000E13083C70B0099C3EFF0DFBEEFF01FCEED
:1059B000054C930C007D31A0EF50A018058D63E5D8
:1059C000AC08014681452285EFF0FFD528B42A8B2B
:1059D000E31485FF1306A01AA1452285EFF0BFD47A
:1059E000118949C523068401014C930C007D31A027
:1059F000EF502015058D63EFAC1093057003014641
:105A00002285EFF05FD26286930590022285EFF047
:105A10009FD128B471FD582489476304F71283A7E6
:105A2000090081C70327090098CB83C70B0099C3DE
:105A3000EFF0BFC3994763E25711230954012300D4
:105A40005A015A856FD04FFAA302840183A7090037
:105A500081C70327090098CB03CB0B0063050B001C
:105A6000EFF0BFC0014B5A856FD00FF89146373722
:105A700001401306F00F52A71E27858BF5DF5E2726
:105A8000FD1693F6F60F93F7F70F3CB4EDF61307F8
:105A9000A00A638CE70689475CB04DBF370700203A
:105AA000130707018A07BA9798439389813123A086
:105AB000E900A9B51307D00CE36CA7E49375F503CF
:105AC0003966139725001306869732971843B966EF
:105AD0009386869A0A0736971843094815831D8BC3
:105AE000E368E8E293172700370700201307070150
:105AF000BA9798439389813123A0E9008A052E96AD
:105B00001C428A07BE969442D5BB89475CA4370CD9
:105B10000040E1BDA1475CB015BF9306D00C014722
:105B2000B7070080E3E1A6E0B96639669386869AF6
:105B30009375F50313068697D1B7D9475CB0014B2F
:105B40001DB701469305A0032285EFF0DFBD39E1C3
:105B50001307F00FB7370140DAA7373701401E2788
:105B6000858BF5DF5E271307000C93F7070C639412
:105B7000E7008D475CA48D46373701401306F00FD0
:105B800052A71E27858BF5DFFD165E2793F6F60FCD
:105B9000E5FA71B599475CB055BDEFD24FE2AA84E2
:105BA000EF40307A37340140AA8A9309F00F130985
:105BB000F00F130AC012231634011E24858BF5DF63
:105BC0005E2493F7F70FBCB463982703EF40707718
:105BD00033055541E371AAFEBD47DCB083A781318F
:105BE00081C703A7413198CB03C5E13001C5EFF070
:105BF000DFA701456FD0EFDF1307E00F0545E38B0B
:105C0000E7FEB547DCB0D9BFEFD26FDBB6849307B0
:105C10000020B2962A8463C4D7027C213289BA89D3
:105C2000A1E358240CC08D476303F700A6052E8618
:105C30002285C545EFF03FAF35CD8D475CB083A7DA
:105C400081312303040081C703A7413198CB83C46A
:105C5000E13081C4EFF07FA1814426856FD06FD9F8
:105C60001C41E390B7FC1E25E36DF6FA63FC2701A7
:105C7000B305F940C205C1810145EFF0DF9B29C59D
:105C800023142401A6854E85EFF0FF9A15CD162426
:105C90003C24A696C206C18216A491C79307F01FA2
:105CA0008544E3FCD7FA7C208544C5DB2285EFF0F0
:105CB0005F9F65B72285EFF05FEE51D185477CA0ED
:105CC0002314040081475DB7E5475CB08DBF99C6DA
:105CD000EFD28FD0EFF05FF36FD04FD205458280C7
:105CE000EFD28FCF3287930600200146EFF0DFF12D
:105CF0006FD0CFD0B7370140CEA7373701401E272E
:105D0000858BF5DF5E27B286373701401306062004
:105D10009C225EA71E27858BF5DF5E278506E3990B
:105D2000C6FE9307F00F5EA7B73601409E26858B0F
:105D3000F5DFDE26373701409307F00FDEA61E277A
:105D4000858BF5DF5E27B73601409307F00F5EA71E
:105D50009E26858BF5DFDE269546054793F7F70FE0
:105D60003CB5FD8B6385D70283A78131454758B188
:105D700081C703A7413198CB03C7E13009CBEFD2EC
:105D8000AFC5EFF09F8E01473A856FD02FC73A8598
:105D90008280EFD26FC441112A84BDC558258D473A
:105DA000B28436896303F700A6052E862285E14575
:105DB000EFF07F9715C191475CB083A7813181C710
:105DC00003A7413198CB03C5E13001C5EFF0FF894E
:105DD000014541016FD08FC226869305E00F2285D1
:105DE000EFF05FF179D96314090283A7813181C78C
:105DF00003A7413198CB83C7E1300545F9DB2AC6BB
:105E0000EFF0BF863245F1B7C9475CB17DB7930566
:105E100080252285EFF0FF8C01E5D5475CB071BF8E
:105E20000146B5452285EFF01F9019ED1307F00FDD
:105E3000B7370140DAA7373701401E27858BF5DFDA
:105E40005E2793F7F70FD5D3D1475CB0BDB7EFD23C
:105E5000AFB883A4813199C0EFF05F831307F00FCF
:105E6000B7370140DAA7373701401E27858BF5DFAA
:105E70004A271374F50F81C483A741319CC883C797
:105E8000E13099C3EFF06FFE130514F03335A00035
:105E90006FD0CFB6EFD24FB458258D472A842E86C7
:105EA0006304F70013969500C9452285EFF0BF877C
:105EB00011E985475CB42307040023180400054555
:105EC0006FD0CFB383A781315D4758B081C703A797
:105ED000413198CB03C5E13065D5EFF00FF90145AD
:105EE0006FD0CFB15C3599C7EFD20FAFEFF0BF9352
:105EF0006FD0CFB005458280EFD20FAEA30605006C
:105F000023180500230705000146B1452A844431C2
:105F1000EFF07F8183A7813181C703A7413198CBFF
:105F200083C7E13099C3EFF04FF444B06FD00FADA9
:105F3000EFD20FA88349D500638A0906B28435C61B
:105F400002292A89AE8B130A0020373C0140130B2B
:105F5000F00F854AA28719EC8347E900B9EB4A851F
:105F6000EFF0BFC3AA892DCD231849019307002064
:105F70001304002063F5F400139404014180A2850A
:105F80005E85EFF04FEBAA8935C163830B00A29BBE
:105F900083570901818C3384874042044180231850
:105FA000890019E023075901D5F485494E856FD042
:105FB000AFA323166C0183578C00858BEDDF8357CD
:105FC000CC0023166C0183578C00858BEDDF835743
:105FD000CC004A8523070900EFF03FBCAA8949F5A8
:105FE0004A85EFF07FF14E856FD00FA0E547A30201
:105FF000F9004A85EFF05FF0FDB7EFD26F9B4111DA
:10600000854C09E6668541016FD00F9EB2892A8AC8
:10601000B6843A843E8BC28BEFF0DFE7AA8C7DD149
:1060200022C626C40144014D373C01401309F00F3C
:106030005285EFF09FB6AA8C2DCD83C7D131930541
:1060400000202685A1EFEFF04FC863050D00DE8527
:106050006A85029B13050020EFF02FD7AA8C39C563
:1060600023162C0183578C00858BEDDF8357CC00E2
:1060700023162C0183578C00858BEDDF0504420429
:106080008357CC004180638D8902937714008A077F
:106090001808BA97268D83A487FF59BFEFF0AFD9B0
:1060A000E3000DFCDE856A85029B5DBFE547A30228
:1060B000FA005285EFF05FE4668541016FD0CF9220
:1060C0008347DA0023180A0023070A00854C89C792
:1060D0005285EFF04FF5AA8C2685DE85029B6685FA
:1060E00041016FD06F908280EFD20F8F83078500C0
:1060F0002A84AE8463CC070091C42685EF00503318
:106100006FD0CF8F1C24BD9B1CA4C5BF48498545BB
:10611000EF00303675D503498401B7170020938707
:10612000C76416093E99630109041834854763E57D
:10613000E7005C4C232EF900185083A70132231D81
:10614000E9003A30231AE90091CB93056901130560
:1061500089018297835789012319F9001C2493F739
:10616000F7071CA4D9F879BF014559BFEFD2CF86F4
:106170002A8448511306C4008545EF00D04E01C95A
:1061800018501C2419C793E707021CA405456FD0BB
:10619000EF86584493E7070818D0F5B7EFD2CF83BE
:1061A0002A89EFF0BFFC0DCD032749020324C90063
:1061B000142B5C4B442379143314D400A2979DC450
:1061C0001384F4FFF9141377F40FBE943E94998C62
:1061D00019A0630A94002285EF0090377D1475F9A9
:1061E00001456FD0AF8183274902942B8327C901D2
:1061F00013070020B316D700BE96232ED9000545FD
:106200006FC0DFFF183505C3EFC21FFD85452A8427
:10621000EFF09FED11C5A304040005456FC01FFEFC
:1062200001456FC0BFFD01458280EFC25FF900519B
:10623000411105C4B2892E89AA8429A032476392EC
:10624000E7023E84C850A2857000EF001034930727
:1062500014006DF541016FC0DFF9014541016FC0C8
:106260005FF9DC50C14603C607026301D604B706D6
:106270000010E1160145E36FD7FC9850902BD44BEA
:1062800079173317C70036972320E900D84BD0235E
:10629000942B79149307F7FFB2973314D4003E94EC
:1062A00023A08900054541016FC0BFF4C166E11616
:1062B000D1B7AE879386B5001307000298A3850770
:1062C000E39EF6FE01471D43130EE002130FD005B7
:1062D000E54FA94205058347F5FFB388E50013089C
:1062E00017009386F7FD1386F7F993F6F60F1376EA
:1062F000F60F8DCB6381C703938E07FE6362E302C3
:106300006360DF0263E4CF0093F7FE0F2380F800A1
:106310001377F80FC1B763055300214729435DBFC9
:1063200001458280882101153335A00082801C350B
:10633000B1E7EFC27FEA83C705024147AE842A84F2
:106340006389E70013070002638CE70201456FC011
:10635000FFEA89471CB5BE312320050296075CCDB4
:10636000854744D01CA42326040023280400232AA4
:106370000400230C040005456FC05FE801458280DE
:106380008D471CB5CC511306C50126850CD0EF00F6
:10639000B02879F565BFEFC23FE11835411132C22F
:1063A0006307071C1C252A8D858B6382071C544DAF
:1063B0001C4912462E849D8E63EFC61A924C638D43
:1063C0000C189306CD00B71B0020894936C4938B67
:1063D000CB64130A0020130C002093F4F71F03254D
:1063E0004D0213D997006307370D834D4500FD1DFE
:1063F000B3FD2D0193FDFD0FF9EC639E0D0CE1E75C
:1064000083270D022326FD00142958491389E7FF2D
:106410003319D900BA9D6E99CDE09307F03F63FE22
:10642000970983479D0063853703582183260D0113
:1064300093D79C401306F7FFA582F18E158FC207F4
:10644000C1831377F70F637EF70A854763EAE70A8C
:10645000B30D9C40C20D93DD0D0183478D0093F772
:10646000070499E3639C4D0783A7C18063882707CE
:1064700003A5C1322287EE862686CA85EFF03F85C6
:106480006307050E6E9483270D013388BC41931C6E
:106490000801EE9793DC0C012328FD00638E0C0AA3
:1064A00003479D0093F4F71F03254D0213D997006E
:1064B000E31D37F35C513E99ADD0B3079A40E68DAA
:1064C000E3DD97F971B78325CD002246EF00F00B8D
:1064D00059CD03254D028327CD003DB781454A851F
:1064E000EF00207949C5338674013307B4010506EE
:1064F0008347F6FF0504A30FF4FEE31AE4FE61B739
:10650000BA8703A7C18063662701B3862701636A40
:10651000D70483ADC13293949700C204CA856E85B7
:10652000C180EFF03F9721C52686A2856E85EFF0EA
:106530003FA015CD6E85EFF0FF9A15C983270D0199
:1065400033889C40931C0801A6972328FD0093DC08
:106550000C012694E3960CF40315410041016FC031
:106560007FC805453EC6EF00A06CB2475DF17D5582
:1065700041016FC03FC7C206C18236C281B5EFC2BA
:10658000BFC51C3505494111637BF9021C4905460D
:106590009305F1009583AA8413F4F700EFF0BFDFB1
:1065A000631F2501984837150020931754007D0775
:1065B00098C81305C5643E9541016FC03FC40145AD
:1065C00041016FC0BFC31C35A1CF584D636AB704EA
:1065D000EFC2FFBE0947AE892A84638EE702A9C9CC
:1065E0005C5114499384F5FF9C2B1387F6FFA50794
:1065F0003357F700B3D4F40063E6E40285C6998C00
:106600001309C40039A04C444850FD14EF00E07752
:1066100009CD4A86EDF82328340105456FC07FBDBA
:10662000014582801C505CC4E1BF01456FC07FBC46
:10663000232605002328050005456FC09FBB1435A0
:1066400005476384E60001458280EFC2FFB8182544
:106650002A8493762700B1CA118B09C74C4D1C4977
:106660006398B70403A5C132EFF06FFE1DED1C2443
:1066700013F707020DE303A781321DEF084893E7E4
:1066800007011CA41377F51F13050020198D42057F
:1066900041816FC0BFB6183411C781452285EFF024
:1066A000BFA41C2493F7F7FD1CA401456FC01FB5C0
:1066B000EFF07FF145F9D5BFA1230145C5BF1C35DA
:1066C00099C7EFC27FB1EFF03FA26FC03FB3014562
:1066D0008280143505476385E60001473A8582804C
:1066E000EFC29FAF182541112A84098B59C7544D19
:1066F000AE8463E4B6080547B1C203290501EFF093
:106700009FEC25CD48509DEC0C50EF00900835C50E
:10671000232004021C24183444CC93E707F81CA45B
:1067200029CF85452285EFF03F9C21C9A68563735B
:106730009900CA852285EFF01FE92A873A85410131
:106740006FC0DFAB4C447000892505C94850C14774
:10675000B245034705026307F702B7070010E117C8
:10676000E3FAF5FAEF00F00209C94C444850370645
:1067700000107D16EF00C07F51FD01473A854101B1
:106780006FC0DFA7C167E117E1BF3717002013070C
:10679000C76493975500BA97B837458B01C71377ED
:1067A000260429EBEFC25FA303A7C1800CADB2841E
:1067B00058C9CE2B2A84C2050CD1BA2FD98D0CD141
:1067C000B837618B15E3DC4F054718B55CCD93F7FF
:1067D000F4001CA4232604002328040013F6040458
:1067E00005451DE26FC09FA1C1476307F700014542
:1067F0006FC0DFA00145828048511306C401292DD6
:106800007DD591471CB4E1B781452285EFF07FEC3F
:106810006FC0DF9EEFC2BF9A4111AA89AE84328554
:106820004C00368BEFF0FFA879C5D850814701495D
:1068300023A2E902D84C23A6040023A80400130ACB
:10684000500E63F7E7029583268513F4F700EFF007
:106850001FD355C11C21C5C76380470DAA852D468E
:106860004800EF4020424DCD9C48D84CE3EDE7FC7A
:1068700093772B0149476390E7086314090C983418
:106880008947630AF7062685EFF05F912DC5371417
:106890000020238C09001304C464924703A701322B
:1068A0001CC0A24723150400231604005CC03C86CC
:1068B00023170400231804001EA41C8723190400B6
:1068C000231A0400231B0400231C0400231D0400BE
:1068D000231E0400231F04003CA451CB9305E400B5
:1068E0001305040102971E287A2405453EA81EAC14
:1068F0007AA83D2E35E5014541016FC09F8F631D8C
:10690000090283A7C180238C890023AAF9001C21D6
:1069100085C705499C4891BFE30509FE0549DDBFD0
:1069200093770B0313070003E387E7FC5A86A285DE
:106930004E85EFF09FE5C9B793772B014947E39C5C
:10694000E7FA03A5490185452D2655D503C48901DC
:10695000B71700209387C76416043E941DFC61BFDF
:1069600083C589015A864E85EFF03FE271B78D6786
:10697000938717821EA88567938707807EA4056783
:106980008D67130707809387178285B71C3599C3D6
:1069900001458280EFC25F84EFF0DFE76FC01F86A2
:1069A000EFC21F811835854741112A8C6318F710F3
:1069B0000349850093772900638207109377490084
:1069C0002E8DB28A14496397071E638F0A0A1359E2
:1069D000490013491900B7190020D68C9389C9645E
:1069E0001379190003254C0293D4960013F4F61F73
:1069F00058218325CC007D17F98C93F7F40FF9EF1C
:106A0000631C0414639E051683270C02DDCF232626
:106A1000FC0013070020E68B63749701930B0020A2
:106A2000142958499384E7FFB394D400C20B930709
:106A3000F01F93DB0B01BA9463EA970F83260C01D6
:106A40008327CC0163F8F60C854526851D243DC5BA
:106A5000B3073401DE85338677016A8705078346ED
:106A6000F7FF8507A38FD7FEE31AF6FE5E9D832707
:106A70000C01B38C7C41C20CB386F50093DC0C0195
:106A80002328DC00E3900CF60327CC0183478C001D
:106A90006371D71493E70708232EDC002304FC005E
:106AA000A18B89CB83479C0091CB85456285EFF014
:106AB000AFE309C5568541016FC00FF38547232217
:106AC000FC00014541016FC02FF26285EFF00FEA33
:106AD00075D58327CC0003254C0225BF1307002062
:106AE000018F42074183BA8B63F3EC00E68B0429E4
:106AF0005849F915B3949500C20BBA9493DB0B0176
:106B000013070020BE946383EB021DFC8327CC0196
:106B1000E3ECF6F20545292A55D183C7413223A675
:106B2000918093E717002382F1321DB783A7C180BC
:106B300063959700FD5723A6F18003A5C132CA864D
:106B40006A86A685EFF0EFA435D9130D0D209305C5
:106B50000020930B002021BF93070020818FC207E4
:106B6000C183BE8B63F3FC00E68B18295C499384D8
:106B7000E5FFB394E400C20B93DB0B01BE94E9B5CF
:106B80007000212421D103254C024147B24783469E
:106B90000502638BE602370700106117E3E9E7E6B9
:106BA0006285EFF0AFDCE30B05F003254C02832791
:106BB000CC0085B54C4DE38AD5E0EFF0DFA0E30FC4
:106BC00005EE83260C0111B541676117E3E1E7E4A7
:106BD000C1BF03A70132E30507ECE3830AEC93E7A7
:106BE00007082304FC006DBDEFC20FDF4111CC8705
:106BF00005469305F100EFF0BFDA41016FC00FE0E9
:106C0000EFC28FDD138481320C4081E505456FC0F2
:106C1000EFDEAA8603A5C132371600201306C6642C
:106C2000EFF02F976DD52320040005456FC00FDDD1
:106C3000EFC28FDA138441321C2081E705456FC013
:106C4000EFDB83A5C180AA8403A5C13237160020DB
:106C5000A6861306C664EFF0CF9309C9E5D0268552
:106C6000EFF01FFA01C523000400C9BF01456FC042
:106C7000EFD8EFC26FD61384C1801C40AE84639AF4
:106C8000A7009387413298230545D98C84A36FC010
:106C9000EFD62A890545EFF0BFF911CD03A5C13222
:106CA000371600201306C664CA85EFF06F8301C54E
:106CB00023202401F9B701456FC04FD4EFC22FD074
:106CC0008346050241472A892E84B289444D83A711
:106CD000C1806383E60413D77500BA946393970465
:106CE0001374F407B71700200A049387C7643E940F
:106CF0002320340193874132982383468901054537
:106D00001367170098A36377D50083278900BE9483
:106D100023A491326FC0EFCD13D78500BA94638D51
:106D2000F40081452685EFF0DFF46DD503470902B5
:106D3000C147E317F7FAA6871374F40F371700203B
:106D400006041307C7643A9423103401BE845DB768
:106D5000EFC28FC82A840545EFF09FED0DC5B71728
:106D600000209387C76413870720238007008507C7
:106D7000E39DE7FE93874132982323A68180136722
:106D8000170098A305456FC06FC75C45850763E38F
:106D9000B708EFC26FC403470502C147AA8432890E
:106DA0002E84484D83A6C1806300F70493D77500F5
:106DB0003E95638BA6008145EFF0BFEB29C903C761
:106DC0000402C1476307F7029375F40737140020E4
:106DD0001304C4648A05A2959C41054592079183DA
:106DE0002320F9006FC08FC193D785003E95E3142F
:106DF000D5FC9375F40F371400201304C464860582
:106E0000A2959E2105452320F9006FC02FBF0145A3
:106E10006FC0CFBE01458280EFC26FBA4111416998
:106E2000B70A00102A842EC6328B8144130A002030
:106E3000C1496119E11A70002285EFF01FF50DC1FB
:106E40001C28834604024A87B317FA00B245BE9451
:106E5000638336015687E3E0E5FE23209B0005456A
:106E600041016FC00FB9EFC2AFB403290600411151
:106E7000328AAA8BAE8A630F09040509814983A768
:106E8000CB004A848144138B170089EB3DA8638AA9
:106E9000560503A7CB003E8463F9E40270005E85CB
:106EA000850463748B0009440949A285EFF0FFED66
:106EB00009CD324793071400B386274169DB03A746
:106EC000CB003E893E84E3EBE4FC81494E854101E1
:106ED0006FC08FB19389F5FF0329050093B919009D
:106EE00079BF8544E3F384FE83A7CB008507E3EEF7
:106EF00087FC370600107D16A2855E85EFF01FDC4B
:106F000069D5637D89027D14E30194FC83A7CB00DE
:106F10008507E3EC87FA894413061400A2855E8591
:106F2000EFF0DFD95DD1630B8900E30094FA83A70A
:106F3000CB007D148507E3F187FE41BF83250A005E
:106F400091CD8547E3F3B7F883A7CB008507E3EE40
:106F5000B7F64A865E85EFF07FD625D923202A0131
:106F60006394090085499DB7050923A02B01B9BF8A
:106F7000854763FDB7005C458146850763E9B70037
:106F8000EFC28FA5EFF09FD36FC04FA78146368524
:106F90008280EFC2CFA289471CC1C167138987FFD6
:106FA000B70700104111AA842E84054AC14A93896B
:106FB00087FFA28570002685EFF03FDDA2850146A0
:106FC00015C5268563748A02DC44850763E0870261
:106FD000EFF0DFCE01CD03C70402CA87324463035A
:106FE0005701CE87E367F4FC054511A00145410137
:106FF0006FC02FA0EFC24F9E23A6B1324111AA84C9
:1070000029CE914763F6C700014541016FC00F9F2C
:107010008145014532C6EFF0DFC57DD53246B71751
:1070200000209387C764690612063E967C2693F774
:10703000F707F9FB5C4E184E41647D14E18F9356BF
:107040000701C207D58F93063006E3FFF6FA7E2AC2
:10705000798C42045D8C19E045BF0144814522854D
:10706000EFF03FC155D1B71700209387C764D827E9
:10707000B037930600202207518FE317D7F8982BDB
:1070800041D7F627D1D2CC37C1D198ACCCA0238838
:10709000040001470545254829A094A83687E385C3
:1070A00006F73316E50093061700E318B6FEF22B39
:1070B000B28611E2D45394C4902BEA273306D60249
:1070C0002295C8CC8C4BA181C205C18193965500F5
:1070D0009386F61F2A96A586B296AEB0D0D0D4C8B5
:1070E000D02BAC3B22064D8E11E29053158C32947E
:1070F0003357E4008566D8C4D11663E7E600B1478C
:107100002380F402054511B7C166D11663E7E60096
:10711000C1472380F4020545CDBDDC5713070002AB
:107120002380E402DCD00545CDB5EFC2EF8ADC2137
:10713000D831AE84904563F3E7088041A29783C6B7
:107140004730939716003387D7000A072297584392
:107150006316C7061309250031A88040A29783C68D
:107160004730939716003387D7000A072297584372
:107170006316C704B6978A073E948307E400583421
:1071800054240316A400831584004A8597A0FF1F8A
:10719000E780A094DC443E8589CB58345424031600
:1071A000A40083158400EFD01FB3DC20D8309044B6
:1071B000850793F7F70FDCA0E3E1E7FA050690C433
:1071C0006FC0CF8323000500230205342313053449
:1071D00023140534828003C86500814763080806CC
:1071E00003D34500854881476312130783C8850090
:1071F000639E08049308F007854763C9C80463C702
:10720000D80432986354000503C875003698635F4C
:107210000003034805009308F003814763E808036F
:10722000930718001CA19317180083A80500C297A4
:107230008A073E952322150112A536A5F42185471C
:1072400054A5F43178A5A307050054B53E85828086
:10725000EFB21FF6834E05002302053423130534D5
:1072600023140534411163890E268589639F052205
:10727000854763FFD7259387EEFF13F7F70F931723
:107280001700BA978A07130F0502130745013E9F9F
:10729000054E930F8500FE870148F43363ED060326
:1072A00083980700CC2303130700C6956355B302E8
:1072B0004C232E9363D1680283982700CC330313A9
:1072C0002700C6956359B3004C3385062E9363D4CB
:1072D000680013F8F60FB107E391E7FCA303070179
:1072E0006365C8010508137EF80F3107E315E7FB56
:1072F000854F2302C53593F8FF0F014E2A9E9387D1
:10730000F8FF370F00012302FE30930205017D1FB5
:1073100063FBD809B307F50183C5373003C3B20057
:1073200003A8020093971500AE978A079107AA97C2
:10733000B83794433378E80193178701620333F732
:10734000E60133630301D98F7E881387FFFF468EE2
:107350006367F30235A883C537303A887D17939762
:107360001500AE978A079107AA97B43783A807003C
:1073700093978601B3F6E801D58F637BF3002A98D3
:107380002302B830B307E500137EF70F69F7014E0B
:10739000850F93F8FF0F2A9E9387F8FF2302FE3094
:1073A000B102E3E9D8F72A8CB284EF00D06FEF0086
:1073B00070062A8903450C0093090920630E051005
:1073C0008148814B377B0000B71A0020054AB3077C
:1073D0001C0103C74730138418001374F40F93176C
:1073E0001700BA978A07E29703C8F70003A347007C
:1073F0006372A40EB3078C0003C7473093171700BE
:10740000BA978A07E297F8376316070DD0439307B8
:10741000430063E1C70C138728001377F70F1307A6
:107420004730629739A81423050793971600B6973B
:107430008A07E297F437639D0601DC4363EAF500AF
:107440003E8605041374F40F93054600E36DA4FC17
:10745000B30C6A406696931C060193DC0C010A8803
:107460009307AB124E87CA8666869A8513854A5E55
:1074700062C023021101C0821AC426C6EFE0FFB722
:1074800011E1E55B83576C3403568C3403450C00E3
:107490008507B29C2313FC3423149C35A288E3682F
:1074A000A4F25E8541016FB03FD41387FEFF93764F
:1074B000F70F139716003697931627001307B50199
:1074C0009307F500369723800700B107E39DE7FE99
:1074D000054E39BD1A86ADBF814B5E8541016FB047
:1074E000BFD083C7413395EF37260020B745002032
:1074F0001306C68581469385C5051305001093D7ED
:10750000460013F7F6008607AE9706079E232E97D0
:107510001A23C2078506D98F1CC21106E391A6FE65
:10752000828009476385E708B746002001119386EA
:10753000C6058A85138506029A228905890693570E
:10754000C70013561740A2073D8A0D83D18F1377CA
:10755000070FD98F239FF5FEE310D5FE37250020B6
:107560001305C5850146130800109377F60018101F
:10757000935646008607BA97860683D507FEBA96C5
:1075800003D706FE9397450093F7F70F93568700AE
:107590001377F70FD58F42079181A2074D8FD98FAF
:1075A0001CC105061105E31206FD05618280374501
:1075B00000201305C50537280020C1681308C885B9
:1075C00013030502FD181E211108090513D7B70082
:1075D00013F6F70193161700935547009587131775
:1075E0001600AA071182CD8EB3F717018A06518FB4
:1075F000D58F4A07D98F232EF8FEE316A3FC82808D
:10760000373701401E27898BF5DF373701401E27AA
:1076100093F70708EDFF1E239396470163C0060406
:107620000547B717014023AAE7C0373701401E2797
:10763000898BF5DF420541814AA7373701401E2774
:10764000898BF5DF373701401E2793F70708EDFFD9
:10765000B7170140054723A8E7C082801E23C20751
:10766000C18393F7F7FBC207C1831EA31623FD77DF
:107670009387F77FF58F1EA31E2393E707041EA3AE
:1076800045B7B73701409A239316470163D40602E2
:107690009A23420741831377F7FB420741839AA35A
:1076A00096237D771307F77F758F9AA39A23136725
:1076B00007049AA3373701401E27898BF5DF42055F
:1076C00041814AA78280EFB29FAFB717014041477F
:1076D00023AAE7801305D002EFF09FF203C74133DE
:1076E0008547014493040002630AF706131514004A
:1076F000935744405D8D05041375F50FEFF07FF847
:10770000E31694FE014493040004228505041374D7
:10771000F40FEFF01FF7E31A94FE01449304000204
:1077200013151400935744405D8D05041375F50F30
:10773000EFF03FF5E31694FE373701401E27898BA3
:10774000F5DF373701401E2793F70708EDFFB7171E
:107750000140414723A8E7806FB0BFA99374F40F9D
:1077600093572440139724003D49FD491305F00326
:10777000D98F6362890213F5F70FEFF09FF00504CC
:107780009374F40F93572440139724001305F003C8
:10779000D98FE37289FEEFF0DFEEE39234FF01440C
:1077A0003D491305F0039374F40F637F8900EFF0F4
:1077B0005FED9307F0036383F40205041305F00300
:1077C0009374F40FE36589FE135524408A04458DB4
:1077D0001375F50FEFF0FFEA0504CDB7014493747C
:1077E000F40F93572440139724003D49FD49130596
:1077F000F003D98F6362890213F5F70FEFF07FE88A
:1078000005049374F40F9357244013972400130531
:10781000F003D98FE37289FEEFF0BFE6E38E34F117
:107820000504C5B7EFB25F9BB7170140414723AAD4
:10783000E7801305A003EFF0BFDC03C441338547A5
:107840000D456307F4001305E4FF13351500150516
:10785000EFF03FE3373701401E27898BF5DF3737DD
:1078600001401E2793F70708EDFFB7170140414776
:1078700023A8E78085476304F4006FB03F9883C76F
:107880002181E5DFEFF03FE46FB05F97EFB23F9308
:10789000371702401C4F05669306C601D58F1CCFD3
:1078A000544BB7170140370800B093E6160054CB8D
:1078B00003A70780B70610FFFD16758FB706B00047
:1078C000558F23A0E78003A70780B708F1FFFD18B5
:1078D000120711833367070123A0E780414723A8DC
:1078E000E780054723A8E7C003A707803703030005
:1078F000938607C0337717013367670023A0E780BB
:1079000003A807C0AE89137808FF1368380023A0C6
:1079100007C123A8C7C083A7018245787D18B3F7A4
:107920001701B3E7670023A0F182DCC283A70182BD
:1079300013060680B3F707010D68B3E7070123A01C
:10794000F182DCC290CA9307C5FFB736014023908D
:10795000060093F7F70F714693064030636AF6000E
:10796000B566938646568607B697962393E64630C5
:10797000B737014096A3239207009223B70602402F
:10798000B10713660604239AC7FEA389A18023A822
:1079900006029CDEB7E700E0238C0740B706000133
:1079A00023A0D710371401400569232824C183A7D9
:1079B0000182B706F1FFFD16F58FB7060300D58FDC
:1079C00023A0F1822322F4C01545EF300019514560
:1079D000232A24C1EF30601813056009232824C12D
:1079E000EF30A017238A3133C147232AF48005459D
:1079F000EFF01FC1373701401E27898BF5DF37377E
:107A000001401E2793F70708EDFF13056009EF30CB
:107A1000C0144545EFF0DFBE373701401E27898B84
:107A2000F5DF373701401E2793F70708EDFF1305F1
:107A3000F00FEF308012138441811305100BEFF02B
:107A40003FBC034904004A85EFF0BFC304302685DC
:107A5000EFF03FC320202285EFF0BFC21305200BBB
:107A6000EFF01FBA4A85EFF0DFC12685EFF07FC146
:107A70002285EFF01FC11305300BEFF07FB84A8568
:107A8000EFF03FC02685EFF0DFBF2285EFF07FBF2C
:107A90004A85EFF01FBF2685EFF0BFBE2285EFF0CD
:107AA0005FBE1305400BEFF0BFB51D45EFF07FBD86
:107AB0001305000CEFF0DFB41305200AEFF07FBCD4
:107AC0000945EFF01FBC13054008EFF09FBB1305FD
:107AD000100CEFF0FFB21305500CEFF09FBA130536
:107AE000200CEFF0FFB12945EFF0BFB90145EFF0F1
:107AF0005FB91305300CEFF0BFB01305A008EFF02D
:107B00005FB81305A002EFF0DFB71305400CEFF0EC
:107B10003FAF1305A008EFF0DFB61305E00EEFF05E
:107B20005FB61305500CEFF0BFAD3945EFF07FB5F0
:107B300013050002EFF0DFAC13056003EFF05FAC5C
:107B400003C5718135641304045DEFF09FB3130521
:107B5000000EEFF0FFAA9304040108200504EFF0E3
:107B60005FB2E31C94FE35641305100E1304045C2D
:107B7000EFF01FA99304040108200504EFF07FB083
:107B8000E31C94FE4D45EFF0BFA7373701401E2799
:107B9000898BF5DF373701401E2793F70708EDFF84
:107BA0002945EF20907B13059002EFF07FA5373732
:107BB00001401E27898BF5DF373701401E2793F7D9
:107BC0000708EDFF13054006EF203079B717014095
:107BD000414723A8E780EFF0FFC4B7470020938711
:107BE000C70535671307275A13860702814619A070
:107BF0001623090796A38907E31CF6FEEFF07F8E94
:107C0000FD57238BF132A38AF1326FB08FDE03C5AB
:107C100041338280372500201305C5C58280EFB22D
:107C2000AFDBB74700201387C7056306E50285C5AC
:107C3000FD1593F5F50F86059387C7053307B50046
:107C40001306050216218907239FD7FE6305E50069
:107C50000905E319C5FEEFF0DF886FB02FDA135E78
:107C60005540B7450020B7080080135FB500137377
:107C7000F501137EFE039385C505014693C8F8FF01
:107C80000145C14E9A211308160089059357B70084
:107C900093565740B307FF4093F6F603B306DE4012
:107CA0007D8BB387F7023307E340B386D60286079E
:107CB0003307E702B697BA978A0763D4170132856C
:107CC000BE881376F80FE31FD6FB8280EFB2CFCDCC
:107CD000372900201309C984835789008356690016
:107CE000035749000111958FC207C183FC8763FFC9
:107CF000E71CA0874204418083556900372D00208E
:107D000022861305CDC59790FF1FE780E0A3835718
:107D10006900856A0D6B3E944204FD77418093872C
:107D2000F77F23138900814C130DCDC5014C138AB5
:107D3000413337340140B7040240938D0AF0930B6E
:107D40000B093EC65E2083460A0033078D01C20739
:107D5000C183F59BC207C1835EA023A8040223A2AE
:107D6000B401E9EE162093870A80FD8E95E2162075
:107D7000C206C18293F6F6FBC206C18216A0162087
:107D8000D58FC207C1831EA01E2093E707041EA043
:107D9000D8DC0581C8D893070B599CD85E2093E79F
:107DA00027005EA09C5893E717009CD88357690072
:107DB0000357890063F3E70C8357890083566900F2
:107DC0000357490093CC1C00958FC207C183FC87E1
:107DD00063FFE7088359E101C20993D9090183557B
:107DE0006900139C9C004E8633058D019790FF1F00
:107DF000E780809583576900BE99C20993D909012C
:107E0000231339019C4093F70720EDDF9C58F99B21
:107E10009CD823A2B4015E20C207C183F59BC20790
:107E2000C1835EA01E24898BF5DF1E2493F707080B
:107E300091DB1E2493F70708EDFB29B716209387E3
:107E40000A80F58F8DC31E20B246C207C18393F707
:107E5000F7FBC207C1831EA01E20F58F1EA01E20A7
:107E600093E707041EA0D8DCC8D8DE873DB7835946
:107E70004900C20993D909019DB7370702401C4345
:107E800093F70720EDDF1C5BB7360140F99B1CDB45
:107E90008567938707F05CC3DE2237370140C2074E
:107EA000C183F59BC207C183DEA21E27898BF5DF44
:107EB000373701401E2793F70708EDFFB71701403A
:107EC000414723A8E78005616FB0CFB10354490053
:107ED0004204418015B5EFB28FAE37240020130461
:107EE000C4841E2476205A204111958FC207C18375
:107EF0007C8763F8E7142487C204C1806E20B72909
:107F0000002026861385C9C59790FF1FE780C08390
:107F10007E202A89BE94C204C18066A07E201A24D5
:107F200063FBE7101E2476205A20958FC207C18379
:107F30007C8763E0E70C4620C204C1806E209389F1
:107F4000C9C52686138509209780FF1FE780C07F5B
:107F500023A8A1327A20BA94C204C18066A0054742
:107F6000A38AE132238B0132373701405E2303C6F7
:107F70004133C207C183F59BC207C1835EA3B70625
:107F80000240856723A80602938507F0CCC216231A
:107F9000938707803DE2FD8E95E21623C206C182DB
:107FA00093F6F6FBC206C18216A31623D58FC2072D
:107FB000C1831EA31E2393E707041EA3B707024035
:107FC00023AE37031359190023AA27038D6793871C
:107FD0002759370702401CDBB7360140DE2293E702
:107FE0002700DEA21C5B93E717001CDB41016FB08A
:107FF0004FA02487C204C18091B7F58F9DC31E2373
:10800000C207C18393F7F7FBC207C1831EA31623E0
:10801000FD779387F77FF58F1EA31E2393E7070451
:108020001EA3B707024023AE370323AA27038D6799
:108030009387270979BF7D57A38AE1329389C9C500
:1080400015B74620C204C18055BDEFB24F97371710
:10805000014085672328F7C083A701823708F1FF15
:108060007D18B3F7070137080300B3E7070123A022
:10807000F1822322F7C083C9018103C91181AA9922
:10808000939A090193DA0A017D1656961305A00208
:108090002E991384F6FF93140601EFF06FD613D5D3
:1080A0008A00EFF00FDE13F5F90FEFF08FDDC180DE
:1080B00013D58400EFF0EFDC13F5F40FEFF06FDC75
:1080C0001305B002131A0901EFF08FD3135A0A01F6
:1080D00013558A00EFF0EFDA52941375F90F42044A
:1080E000EFF02FDA418013558400EFF08FD913752C
:1080F000F40FEFF00FD91305C002EFF06FD0373750
:1081000001401E27898BF5DF373701401E2793F783
:108110000708EDFF6FB0EF8D138761331C23E20773
:10812000E187E3DD07FE3308C5006354050042869E
:1081300001453387D50063D40500BA86814593078E
:10814000000863D407013386A7409307000863D46F
:10815000E700B386B7408147635CC00A635AD00A20
:10816000EFB28F8783C7413305472A966384E70AB6
:1081700009476384E70C0506799A93070008799903
:1081800063CAC70A098E13181600139706019307CE
:1081900000204183054363EC0701B3D7070363DC89
:1081A000F60A93970601C1833308F8023A839318BD
:1081B0000501B72700209387C78493D8080123902F
:1081C00017019318060193D808012391170193987A
:1081D000050193D80801469723926700420723932D
:1081E000170141839AA723A607014147B71701400A
:1081F00023AAE78093F6F60F1376F60F93F5F50FA3
:108200001375E50FEFF07FE485473E856FA01FFFF4
:108210003E8582801D06619A93070008619963D4A8
:10822000C70013060008098E131816003298135859
:108230001800A1BF13060008B1B70D06719A930785
:108240000008719963D4C70013060008098E13183B
:10825000160032981DBF139307011353030133080F
:10826000F802B1B7EFA25FF7EFF01FEB19C1EFF023
:10827000FFA56FA0BFF8EFA23FF6EFF0FFE919C12D
:10828000EFF07FC56FA09FF7EFA21FF593060008E0
:108290001306000881450145EFF01FE819C1EFF012
:1082A000FFA26FA0BFF5138761331C23E207E187AC
:1082B000E3DD07FE8280B7070240945B797122D626
:1082C00026D44AD24ED052CEF99A056794DB930554
:1082D00007F0CCC3138451331420139686016186B2
:1082E00063560604B7360140DE2237370140C20725
:1082F000C183F59BC207C183DEA21E27898BF5DFF0
:10830000373701401E2793F70708EDFFB7170140E5
:10831000C14623A8D780FD57238BF1323254A25493
:1083200012598259724A45617300203013856133B6
:1083300013890133034A05000328090014A1FD56DF
:1083400014A0B738014083D6480003C34133C206A6
:10835000C182F59AC206C1822392D80023A80702DF
:10836000CCC3B726002083D708009386C6C526064F
:1083700013158A016185369613070780631C03086D
:10838000F98FF5C3B7070240D0DF1358180023AAAE
:1083900007038D6793872759370702401CDB373661
:1083A00001405E22B72400209384C48493E7270011
:1083B0005EA21C5B93E717001CDBFE209A24E3FF00
:1083C000E7F49E24F220DA20918FC207C1837C87D4
:1083D00063E5E70883D94400C20993D90901EE2077
:1083E00026054E8636959780FF1FE780E0352320CF
:1083F000A900FE201259BE99C20993D909012393FD
:108400003401230044013254A2548259724A456116
:10841000730020307D8F0DCB83D70800C207C18346
:1084200093F7F7FBC207C1832390F80003D7080036
:10843000FD779387F77FF98F2390F80083D70800A3
:1084400093E707042390F800B7070240D0DF23AA80
:1084500007038D679387270981B78359E100C20914
:1084600093D90901ADBF83D70800C207C18393F731
:10847000F7FBC207C1832390F80083D708005D8F04
:10848000420741832390E80083D7080093E707045D
:108490002390F800C5BDEFA29FD23A8A2A89B289FB
:1084A0003387D50063D40500BA8681459307000859
:1084B00063D4E700B386B740B384D500635ED000D1
:1084C000D2864E864A85138415009780FF1FE78069
:1084D000C04FA285E39684FE6FA0BFD1EFA25FCD0F
:1084E00001169378F60F1308E005AE8CB68B3A8927
:1084F0009307B0096365180193172600B297B56A10
:10850000938A0A5E138C5A002A8BBE9A3E9C1D4A9F
:1085100083C90A00E684014421A0CA94630144038C
:10852000B3D78900858B0504EDDBA6855E87CA86F7
:108530004A865A85EFF03FF6CA94E31344FF850A52
:108540004A9BE3175CFD6FA03FCAEFA27FC603CA38
:108550002500630D0A0403CB350063090B04038C6B
:108560005500038D650083D90500330CFC02BE8CD9
:10857000BA8A814BAA9981440144330DFD02329C91
:10858000369D014989E403C40900A1448509937615
:10859000040819CC8DEA060405091374F40FFD14C0
:1085A000E34249FF850B669DE31D7BFD6FA0DFC3A2
:1085B000B3072A41A68663D39700BE863699958C69
:1085C000E34249FDC5B733852C035687E6866686A8
:1085D000EA856295EFF03FEC7DBFEFA2FFBC2A8AEF
:1085E0002E8D32843689054C11C33A8C83AB81338E
:1085F000D28C638E0B08A94D354B854A9309F00345
:1086000083070400A1CB93F7F70F05046381B70735
:10861000E38867FF03D78B0063C0E70483D6AB0012
:1086200063CCF60283A44B00998F8E07BE94E9D8E1
:1086300003A50B0063045C05E2874A87EA86668629
:10864000A685EFF09FF0DC20B3878703BE9C8307ED
:108650000400D5FB6FA01FB9E3E4E9FA83D7AB00B0
:108660009306E003E3FEF6F89307F00365BF83C7C4
:10867000CB00D28CB38787033E9D59B74A87EA86E1
:108680006686A6859780FF1FE78040246DBF9319FB
:108690001C00E2998609931C3C00D284A94A354B00
:1086A000854B830704000504D5D726856287CA86D3
:1086B0003E86EA8563805703E38567FF63067C0196
:1086C000EFF0DFE1CE94F1BF9780FF1FE78000104D
:1086D000CE94C1BF669DD284E9B7EFA2FFAF054734
:1086E000EFF0BFEF6FA09FB1014582808347050483
:1086F000034515043385A7401375F50382800347AE
:1087000005048347150493F7F70F6388E700834751
:1087100015043E950345250482807D5582800347DC
:1087200005048347150493F7F70F6380E7020347B7
:108730001504834715042A9703472704850793F7F1
:10874000F703A300F5043A8582807D558280EFA26D
:10875000BFA82E85B285EF10A06C6FA03FAAEFA234
:10876000BFA71C414111CC87D843B787000093872E
:10877000E774631AF70085451305F100EF10406AAE
:1087800041016FA0BFA79305F10005460297410183
:108790006FA0DFA6411122C6374401409305505215
:1087A00013050480EF00306809E53244410173008D
:1087B00020309305505213050480EF00D06A130552
:1087C0000480EF009063B74700209387C70703C773
:1087D000070483C6170405071377F703E307D7FCDD
:1087E00083C607042380E704B6972381A704324495
:1087F000410173002030B96793878797D8479C471A
:10880000B9669386869A8A07B6970A07369794437D
:10881000B74700209387C70710431307803E98C7C8
:1088200039671307C7A198C337470140238007045E
:108830001307078023A2070098CBD0D794D7A38033
:1088400007046314D6007D57D8D77D5798DBD8DB53
:108850008280B7370140938707C0638BF500B70765
:108860000040638BF500938707406383F50A01A0FE
:108870008147184D09C701A0184D85476DFFEFA22C
:10888000BF952A840CCD48C813972700930600088B
:10889000B747002054D59387471093060004BA9732
:1088A00014D913074501232E0500232005022312A6
:1088B0000502610598C393044403EF10202D1309AA
:1088C00044089C44A68526850D4691C7829723A41B
:1088D000040023A60400C104E39524FF084CC167EB
:1088E000FD171CD0232004002322040023240400AD
:1088F0002326040023280400232E04008545EF00CE
:10890000B040084C9305C401EF0070386FA01F8F72
:10891000894785B7EFA25F8C232E05022326050425
:10892000232E050423260506232E0506232C0500E9
:10893000EFF03FF2B7E700E0214723A2E71013076B
:10894000000223A2E7101307000423A2E710370751
:10895000080023A2E7103707400023A2E7106FA00A
:10896000FF8919CDEFA25F872A8408418545EF0072
:10897000703B09C51C40DE27858B81E76FA01F88EF
:1089800001A02285EF10402008415C5D89C73C4171
:1089900013054503829708408545EF00303AF9BF3B
:1089A00029C9EFA27F832A8408415E25898B99E734
:1089B0005E25918B81E75E25A18BBDC78945EF00C0
:1089C00070360DC90840894513094004EF0010377F
:1089D00085442285EF10401B1841330527011C45B3
:1089E00099C7938734009207BA979C4B82976FA0E0
:1089F000FF8001A008409145EF00D03211ED084002
:108A0000A145EF0030320DC50840A14513094006CD
:108A1000EF00D0328D4475BF0840914513094005E1
:108A2000EF00D031894475B75E25C18BE9D379B7A2
:108A30000840C145EF00102F09E5814413094003A8
:108A400049BF0840C14513094007EF00302F91444A
:108A500049B7EFA26FF8184DB7370140938707C0A9
:108A6000AA840144630EF700B70700400544630978
:108A7000F7009387074009446304F70041647D14BD
:108A800013858401EF10C016B74700200A049387AE
:108A90004710A29723AA04001384440723A00700C9
:108AA000938444021C44A28522850D46411491C33F
:108AB0008297E31994FE6FA06FF4B7370140938754
:108AC00007C02A87630EF500B70700400545630815
:108AD000F700938707406307F70041657D158280A3
